:03000000020E707D
:0C0E7000787FE4F6D8FD758160020EB7B3
:10126A0001410001210001220101230101240101A0
:08127A002501012601012701F5
:1011DF00120EFC12129C12128312104B1211ACE55C
:1011EF00606006E4F56012109EE55260F2120CFE8C
:0511FF00E4F55280EA56
:03001300020F7366
:100F7300C0E0C0F0C083C082C0D075D000C000C044
:0D0F830001C002C003C004C005C006C007C5
:100F9000D200D2017F147E00120016C20030B3FDD1
:100FA0007F147E00120016C28B20001A30011774C5
:100FB0005B255FF806745B255FF8E675F00384A691
:0A0FC000F0C2CA755201A2009201AE
:100FCA00D007D006D005D004D003D002D001D0007B
:0B0FDA00D0D0D082D083D0F0D0E03225
:03000B000209DB0C
:0B09DB00C0E0C0D075D000C000C00715
:1009E600758A00758CB80521E52164016003020B48
:1009F6006DF521A2B433F522A2B6E433F523A2B7EE
:100A0600E433F524E5227045E5256401703F745B07
:100A1600255FF8E6FFB40110E55F25E02453F808EA
:100A260006E6187028068025EFB40215744E255F79
:100A3600F806744E255FF8E6D3946440107600807D
:100A46000C055FE55FD394034003755F00E52370F3
:100A560045E5266401703F745B255FF8E6FFB40147
:100A660010E55F25E02453F808E61618702816806E
:100A760025EFB40215744E255FF816744E255FF8FF
:100A8600E6D3946440107664800C155FE55FD394DA
:100A9600034003755F03E524701EE527B40119B210
:100AA600CA20CA117590FF755B00755C00755D0004
:100AB600755E008003754101E5227041E525703DB4
:100AC6000528E528D394644034745B255FF8E6FF77
:100AD600B40110E55F25E02453F80806E618701AFD
:100AE600068017EFB40213744E255FF806744E2580
:100AF6005FF8E6D3946440027600756001E52370E2
:100B060041E526703D0528E528D394644034745B9E
:100B1600255FF8E6FFB40110E55F25E02453F808E9
:100B2600E61618701A168017EFB40213744E255F76
:100B3600F816744E255FF8E6D39464400276647521
:100B46006001E522B40109E5257005F52875520115
:100B5600E523B40109E5267005F5287552018522BD
:070B660025852326852427C5
:090B6D00D007D000D0D0D0E03256
:03002B00020B764F
:100B7600C0E0C0F0C083C082C0D075D000C000C045
:0D0B860001C002C003C004C005C006C007C6
:100B93007519006390FF20CF03020CE3C2CFE54138
:100BA3007003020C45754100751900E51925E02411
:100BB30053F8E6FC08E6FDE41207C9A804A905AA50
:100BC30006AB077F007E407D9C7C451207271208F9
:100BD30002E51925E02431F8A60608A607744E2578
:100BE30019F8E6FCE41207CE7B007A40799C78453D
:100BF30012061EC004C005C006C007E51925E0247F
:100C030053F8E6FC08E6FDE41207C9A804A905AAFF
:100C130006AB07D007D006D005D004120727E4FBA4
:100C2300FA79C87842120727120802E51925E02449
:100C330039F8A60608A6070519E519640460030236
:100C43000BAE751900E51925E02429F80806E61806
:100C5300700106E51925E02431F8E6FE08E6FFE514
:100C63001925E02429F8E6FC08E6C39FEC9E400C16
:100C7300E51925E02429F87600087600E51925E032
:100C83002439F8E6FE08E6FFE51925E02429F8E60D
:100C9300FC08E6C39FEC9E501FE51914600E146018
:100CA3000F1460102403702DD2A08029D2A18025B7
:100CB300D2A28021D2A3801DE51914600E14600F07
:100CC3001460102403700EC2A0800AC2A18006C261
:100CD300A28002C2A30519E51964046003020C484B
:100CE300D007D006D005D004D003D002D001D00065
:0B0CF300D0D0D082D083D0F0D0E0320F
:10001600EF1FAC0670011E4C600A7D027CEFDCFE11
:04002600DDFC80EC91
:01002A0022B3
:10002E0000000000000000000000000000000000C2
:10003E00000000F800000000000000333000000057
:10004E0000100C06100C060000000000000000005E
:10005E0040C07840C0784000043F04043F040400D0
:10006E00007088FC08300000001820FF211E0000E0
:10007E00F008F000E018000000211C031E211E00F5
:10008E0000F00888700000001E212324192721107B
:10009E0010160E000000000000000000000000001E
:1000AE00000000E0180402000000000718204000C5
:1000BE0000020418E00000000040201807000000B5
:1000CE00404080F0804040000202010F0102020019
:1000DE00000000F0000000000101011F01010100FD
:1000EE00000000000000000080B070000000000062
:1000FE0000000000000000000001010101010101EB
:10010E000000000000000000003030000000000081
:10011E000000000080601804006018060100000056
:10012E0000E010080810E000000F102020100F0053
:10013E00001010F8000000000020203F20200000DA
:10014E000070080808887000003028242221300032
:10015E0000300888884830000018202020110E003A
:10016E000000C02010F8000000070424243F2400E3
:10017E0000F80888880808000019212020110E00B8
:10018E0000E0108888180000000F112020110E00CA
:10019E0000380808C83808000000003F00000000C2
:1001AE000070880808887000001C222121221C0083
:1001BE0000E010080810E0000000312222110F00AC
:1001CE00000000C0C0000000000000303000000041
:1001DE0000000080000000000000806000000000B1
:1001EE0000008040201008000001020408102000CA
:1001FE004040404040404000040404040404040015
:10020E0000081020408000000020100804020100A9
:10021E00007048080808F0000000003036010000A9
:10022E00C030C828E810E0000718272423140B005C
:10023E000000C038E0000000203C230202273820D6
:10024E0008F8888888700000203F202020110E00BA
:10025E00C0300808080838000718202020100800B1
:10026E0008F808080810E000203F202020100F009A
:10027E0008F88888E8081000203F20202320180066
:10028E0008F88888E8081000203F200003000000CE
:10029E00C03008080838000007182020221E02006F
:1002AE0008F808000008F808203F210101213F202E
:1002BE00000808F8080800000020203F2020000059
:1002CE0000000808F8080800C08080807F00000049
:1002DE0008F888C028180800203F20012638200082
:1002EE0008F8080000000000203F202020203000E9
:1002FE0008F8F800F8F80800203F003F003F200003
:10030E0008F830C00008F808203F200007183F000A
:10031E00E01008080810E0000F10202020100F0039
:10032E0008F808080808F000203F2101010100002C
:10033E00E01008080810E0000F18242438504F0071
:10034E0008F8888888887000203F2000030C302031
:10035E0000708808080838000038202121221C006F
:10036E00180808F8080818000000203F20000000B8
:10037E0008F808000008F808001F202020201F00A1
:10038E000878880000C83808000007380E01000001
:10039E00F80800F80008F800033C0700073C0300CB
:1003AE00081868808068180820302C03032C302031
:1003BE000838C800C83808000000203F20000000A0
:1003CE0010080808C83808002038262120201800F8
:1003DE00000000FE020202000000007F40404000CC
:1003EE00000C30C000000000000000010638C00004
:1003FE0000020202FE000000004040407F000000AC
:10040E0000000402020204000000000000000000D0
:10041E0000000000000000008080808080808080CE
:10042E0000020204000000000000000000000000B6
:10043E0000008080808000000019242222223F20AC
:10044E0008F8008080000000003F112020110E00EF
:10045E000000008080800000000E1120202011007E
:10046E00000000808088F800000E112020103F2030
:10047E000000808080800000001F222222221300B4
:10048E00008080F0888888180020203F20200000FF
:10049E000000808080808000006B949494936000B4
:1004AE0008F8008080800000203F210000203F20BF
:1004BE0000809898000000000020203F20200000BF
:1004CE00000000809898000000C08080807F0000AF
:1004DE0008F8000080808000203F24022D3020008C
:1004EE00000808F8000000000020203F2020000037
:1004FE008080808080808000203F20003F20003F51
:10050E008080008080800000203F210000203F205E
:10051E000000808080800000001F202020201F000F
:10052E00808000808000000080FFA12020110E003E
:10053E000000008080808000000E112020A0FF802F
:10054E00808080008080800020203F2120000100DC
:10055E000000808080808000003324242424190031
:10056E00008080E0808000000000001F202000003E
:10057E008080000000808000001F202020103F207F
:10058E00808080000080808000010E30080601000F
:10059E0080800080008080800F300C030C300F00B4
:1005AE0000808000808080000020312E0E312000DF
:1005BE00808080000080808080818E70180601000F
:1005CE0000808080808080000021302C222130002D
:1005DE0000000000807C020200000000003F40404E
:1005EE0000000000FF00000000000000FF000000FF
:1005FE000002027C800000000040403F000000002E
:10060E0000060101020204040000000000000000C8
:0912C500D281D280C281C28022D4
:07000300C281D280D28122EC
:07120400AD071212C57F784F
:10120B00E4FEEF30E703D38001C39281D280C2802A
:0C121B00EF25E0FF0EBE08EAD280C28082
:0112270022A4
:1012B500121204E4FF12120BAF0512120B02000307
:10124A00F583E58229F582E43583F583E493F4FF97
:10125A001212047F4012120BAF0512120B02000386
:06122800E51304FFAD0216
:10122E00AC05EF44B0FF1212B5EC54F0C4540F44A9
:0C123E0010FF1212B5EC540FFF0212B5A5
:10128300E4FBAF03E4FD12122EE4FCE4FF12125A56
:081293000CBC80F70BBB08EA5C
:01129B002230
:10129C00E4FBAF03E4FD12122EE4FC7FFF12125AA2
:0812AC000CBC80F70BBB08EA43
:0112B4002217
:100EFC00D281D2807FAE1212B57FD51212B57F800F
:100F0C001212B57FA81212B57F3F1212B57FD31201
:100F1C0012B5E4FF1212B57F401212B57FA1121266
:100F2C00B57FC81212B57FDA1212B57F121212B544
:100F3C007F811212B57FCF1212B57FD91212B57FF5
:100F4C00F11212B57FDB1212B57F301212B57FA4ED
:100F5C001212B57FA61212B57F8D1212B57F141224
:070F6C0012B57FAF0212B5C0
:040DE2008F13AA05BC
:100DE600E4F9EB24E0FB12122EE516604DE475F0F3
:100DF60010EBA4242EF582E5F03400F583E5822974
:100E0600F582E43583F583E493FF12125A09B90893
:100E1600DD121228E4F975F010EBA42436F582E50C
:100E2600F03400F583E58229F582E43583F583E421
:100E360093FF12125A09B908DD22E4F975F010EB96
:100E4600A4242EF582E5F0340012124A09B908EC02
:100E5600121228E4F975F010EBA42436F582E5F0B9
:090E6600340012124A09B908EC2B
:010E6F002260
:0A1171008F098D0A8B0B8A0C890D83
:10117B00E4F50FC2AFF50FAB0BAA0CA90D850F82CF
:10118B00758300120883FB6015E50F75F008A42525
:10119B000AFD850E16AF09120DE2050F80D9D2AFED
:0111AB002221
:0810E9008E138F148D828C839D
:1010F100E4751801F517F516F515E5821582AE832D
:10110100700215834E601CAB18AA17A916A815AE5C
:1011110013AF14E4FCFD1208B08F188E178D168CD6
:0B1121001580D7AF18AE17AD16AC1547
:01112C0022A0
:040FE5008F098D0AD9
:100FE900E4F511C2AFF511E511C3950F5051E50FA5
:100FF90024FFFFE434FFFEC3EF9511FDEE9400FCDE
:101009007F0A7E001210E9A804A905AA06AB07AF5A
:101019000EAE0DAD0CAC0B12093BE47B0AFAF9F8E4
:1010290012093BEB2430F512E51175F008A4250AE5
:10103900FD851016AB12AF09120DE2051180A8D279
:01104900AFF7
:01104A002283
:1011AC005389F0438901E4F58A758CB8C28DD28CD1
:1011BC00D2A9F5C9F5C875CC8F75CDFE75CA8F75DA
:1011CC00CBFEC2CAD2ADD28AD2AAD2BDC2B9D2BAD1
:0311DC00D2AF226D
:10112D00667265313A2020202020485A2020202543
:10113D0000667265323A2020202020485A20202057
:10114D002500667265333A2020202020485A202041
:10115D00202500667265343A2020202020485A2030
:04116D002020250019
:10104B00E4F55F755201F55BF55CF55DF55EF55307
:10105B0075540AF555755614F55775581EF559758F
:10106B005A28754E0A754F1475501E7551287542C6
:10107B00FF75431175442D7545FF75461175473E38
:10108B007548FF754911754A4F754BFF754C1175B6
:03109B004D602283
:100CFE00E4F508E508655F7063E50875F003A42464
:100D0E0042F8860308E6FA08E6F9E50825E0FFE46E
:100D1E00F50EFD121171E50825E0FFC007E5082567
:100D2E00E02453F8E6FE08E6FFE48F0E8E0DF50C78
:100D3E00F50B750F03F510D0077D30120FE5E508A2
:100D4E0025E0FFC007744E2508F8E6FFE48F0EF588
:100D5E000DF50CF50B750F02F5108064E50875F0B6
:100D6E0003A42442F8860308E6FA08E6F9E5082506
:100D7E00E0FF750E01E4FD121171E50825E0FFC0DC
:100D8E0007E50825E02453F8E6FE08E6FFE48F0E9B
:100D9E008E0DF50CF50B750F03751001D0077D3018
:100DAE00120FE5E50825E0FFC007744E2508F8E6AA
:100DBE00FFE48F0EF50DF50CF50B750F0275100196
:100DCE00D0077D68120FE50508E508C394045003AB
:030DDE00020D0102
:010DE10022EF
:10109E00E55F25E0FFC007E55F25E02453F8E6FE97
:1010AE0008E6FFE48F0E8E0DF50CF50B750F03F5AC
:1010BE0010D0077D30120FE5E55F25E0FFC0077405
:1010CE004E255FF8E6FFE48F0EF50DF50CF50B756A
:0B10DE000F02F510D0077D68020FE53F
:10061E00EC4D6011E8497017ED33EC3304600DE4D6
:10062E00FCFFFEFD22E933E8330470F802086E1277
:10063E00083958046009E4CC248150062850090278
:10064E000878284003020875C0E0EB4A7044B98070
:10065E0006D0E0FB020864EF4E701CBD8008EBFF75
:10066E00EAFEE9FD80EBE98DF0A4FEE5F002070756
:10067E00E9CDF9EAFEEBFFEF89F0A4FCE5F0CE89B7
:10068E00F0A42EFFE435F0CD89F0A42DFEE435F074
:10069E008067EF4E7005BD80D780C3EF8BF0A4ACA2
:1006AE00F0EE8BF0A42CFCE435F0F8EF8AF0A42CDD
:1006BE00E5F038FCE433CB8DF0A42CFCE5F03BF8F0
:1006CE00EE8AF0A42CFCE5F038F8E433CF89F0A4E0
:1006DE002CFCE5F038CF3400CE89F0A42FFFE5F0E6
:1006EE003EFEE433C98DF0A42EFEE5F039CD8AF03E
:1006FE00A42FFFE5F03EFEE43DFD33D0E0FB5007B6
:10070E000BBB000F020878EC2CFCEF33FFEE33FE30
:06071E00ED33FD0208505E
:10072400020878EC5D046005E85904700302086E61
:10073400120839580460F6EC4860F2EC7004FDFECF
:10074400FF22C860DB2481C85009C39860025006A8
:100754000208759850CAF582E9294B4A7005AB82A4
:1007640002086475F0007C1A7880C3EF9BEE9AED62
:1007740099400DC3EF9BFFEE9AFEED99FDE842F020
:10078400DC23ACF0D0E0FFD0E0FED0E0FDAB822073
:10079400E7101BEB60BAEC2CFCEF33FFEE33FEEDFD
:1007A40033FD020850E803F830E705C0F075F000A7
:1007B400EF2FFFEE33FEED33FD40B830E7C280AAE1
:1007C40075F020800E75F010800575F0087D007EB0
:1007D400007F003392D530D5031209CDEC3340109D
:1007E400EF33FFEE33FEED33FDEC33FCD5F0ED22B9
:0E07F400E5F0247EA2D513CC92E7CDCEFF22F5
:10080200EDD2E7CD33EC3392D524814006E4FFFEEE
:10081200FDFC22FCE4CFCECDCC24E0501174FF804D
:10082200EDC3CC13CCCD13CDCE13CECF13CF0470EA
:07083200F030D5DE0209CD14
:10083900E9D2E7C933E833F892D5EDD2E7CD33EC05
:0708490033FC5002B2D5227E
:10085000EC30E7100FBF000C0EBE00080DBD000409
:100860000BEB6014A2D5EB13FCED92E7FD2274FFB5
:10087000FCFDFEFF22E480F8A2D574FF13FC7D800E
:03088000E480EF22
:100E7C000211DFE493A3F8E493A34003F68001F29C
:100E8C0008DFF48029E493A3F85407240CC8C33377
:100E9C00C4540F4420C8834004F456800146F6DF46
:100EAC00E4800B010204081020408090126AE47E5A
:100EBC00019360BCA3FF543F30E509541FFEE4933B
:100ECC00A360010ECF54C025E060A840B8E493A302
:100EDC00FAE493A3F8E493A3C8C582C8CAC583CA2D
:100EEC00F0A3C8C582C8CAC583CADFE9DEE780BEE5
:01128200006B
:10088300BB010CE58229F582E5833AF583E022502A
:1008930006E92582F8E622BBFE06E92582F8E22274
:0D08A300E58229F582E5833AF583E493228E
:1008B000E88FF0A4CC8BF0A42CFCE98EF0A42CFCE7
:1008C0008AF0EDA42CFCEA8EF0A4CDA8F08BF0A465
:1008D0002DCC3825F0FDE98FF0A42CCD35F0FCEBC4
:1008E0008EF0A4FEA9F0EB8FF0A4CFC5F02ECD3989
:0F08F000FEE43CFCEAA42DCE35F0FDE43CFC22F6
:1008FF0075F008758200EF2FFFEE33FECD33CDCCB0
:10090F0033CCC58233C5829BED9AEC99E582984032
:10091F000CF582EE9BFEED9AFDEC99FC0FD5F0D60F
:10092F00E4CEFBE4CDFAE4CCF9A88222B800C1B939
:10093F000059BA002DEC8BF084CFCECDFCE5F0CB77
:10094F00F97818EF2FFFEE33FEED33FDEC33FCEBB0
:10095F0033FB10D703994004EB99FB0FD8E5E4F96B
:10096F00FA227818EF2FFFEE33FEED33FDEC33FC58
:10097F00C933C910D7059BE99A4007EC9BFCE99A4C
:10098F00F90FD8E0E4C9FAE4CCFB2275F010EF2F91
:10099F00FFEE33FEED33FDCC33CCC833C810D70791
:1009AF009BEC9AE899400AED9BFDEC9AFCE899F8CC
:0E09BF000FD5F0DAE4CDFBE4CCFAE4C8F9225F
:0E09CD00C3E49FFFE49EFEE49DFDE49CFC223B
:00000001FF
