:03000000020BAD43
:0C0BAD00787FE4F6D8FD758160020BF43F
:100FC9000141000121000122010123010124010144
:080FD900250101260101270199
:100F1C00120C39120FFB120FE2120D88120EE9E5BA
:100F2C00606006E4F560120DDBE55260F212095ABE
:050F3C00E4F55280EA1B
:03001300020CB02C
:100CB000C0E0C0F0C083C082C0D075D000C000C00A
:0D0CC00001C002C003C004C005C006C0078B
:100CCD00D200D2017F147E00120016C20030B3FD97
:100CDD007F147E00120016C28B20001A300117748B
:100CED005B255FF806745B255FF8E675F00384A657
:0A0CFD00F0C2CA755201A200920174
:100D0700D007D006D005D004D003D002D001D00040
:0B0D1700D0D0D082D083D0F0D0E032EA
:03000B000207BD2C
:0B07BD00C0E0C0D075D000C000C00735
:1007C800758A00758CB8C2CF0521E52164016003E4
:1007D800020951F521A2B433F522A2B6E433F52378
:1007E800A2B7E433F524E5227045E5256401703F9E
:1007F800745B255FF8E6FFB40110E55F25E024533C
:10080800F80806E6187028068025EFB40215744E1D
:10081800255FF806744E255FF8E6D3946440107699
:1008280000800C055FE55FD394034003755F00E526
:10083800237045E5266401703F745B255FF8E6FF89
:10084800B40110E55F25E02453F808E6161870286F
:10085800168025EFB40215744E255FF816744E25E0
:100868005FF8E6D3946440107664800C155FE55F0A
:10087800D394034003755F03E524701EE527B40194
:1008880019B2CA20CA117590FF755B00755C0075B6
:100898005D00755E008003754101E5227041E52524
:1008A800703D0528E528D394644034745B255FF8CF
:1008B800E6FFB40110E55F25E02453F80806E618C2
:1008C800701A068017EFB40213744E255FF8067489
:1008D8004E255FF8E6D3946440027600756001E522
:1008E800237041E526703D0528E528D394644034FB
:1008F800745B255FF8E6FFB40110E55F25E024533B
:10090800F808E61618701A168017EFB40213744E1A
:10091800255FF816744E255FF8E6D3946440027696
:1009280064756001E522B40109E5257005F52875AF
:100938005201E523B40109E5267005F52875520131
:090948008522258523268524273C
:09095100D007D000D0D0D0E03274
:100F6500EF14600F14601114601324037013A202B0
:100F750092A022A20292A122A20292A222A20292EF
:020F8500A322A5
:03002B00020A3E88
:100A3E00C0E0C0F0C0D075D000C000C003C004C07C
:050A4E0005C006C00711
:100A5300E4FB6390FF20CF03020B0CC2CFE54160A0
:100A630049754100EB25E02453F8E6FC08E6FD7EDA
:100A73000F7FA012064BEB25E02431F8A60608A64B
:100A830007744E2BF8E675F028A4FFAEF0EB25E0D3
:100A93002453F8E6FC08E6FD12064BEB25E0243967
:100AA300F8A60608A6070BBB04BA7B00EB25E024D7
:100AB30029F80806E618700106EB25E02431F8E66C
:100AC300FE08E6FFEB25E02429F8E6FC08E6C39FD1
:100AD300EC9E400BEB25E02429F87600087600EB2A
:100AE30025E02439F8E6FE08E6FFEB25E02429F8A3
:100AF300E6FC08E6C39FEC9EAF035004D2028002DB
:090B0300C202120F650BBB04A332
:100B0C00D007D006D005D004D003D000D0D0D0F080
:030B1C00D0E032F4
:10001600EF1FAC0670011E4C600A7D027CEFDCFE11
:04002600DDFC80EC91
:01002A0022B3
:10002E0000000000000000000000000000000000C2
:10003E00000000F800000000000000333000000057
:10004E0000100C06100C060000000000000000005E
:10005E0040C07840C0784000043F04043F040400D0
:10006E00007088FC08300000001820FF211E0000E0
:10007E00F008F000E018000000211C031E211E00F5
:10008E0000F00888700000001E212324192721107B
:10009E0010160E000000000000000000000000001E
:1000AE00000000E0180402000000000718204000C5
:1000BE0000020418E00000000040201807000000B5
:1000CE00404080F0804040000202010F0102020019
:1000DE00000000F0000000000101011F01010100FD
:1000EE00000000000000000080B070000000000062
:1000FE0000000000000000000001010101010101EB
:10010E000000000000000000003030000000000081
:10011E000000000080601804006018060100000056
:10012E0000E010080810E000000F102020100F0053
:10013E00001010F8000000000020203F20200000DA
:10014E000070080808887000003028242221300032
:10015E0000300888884830000018202020110E003A
:10016E000000C02010F8000000070424243F2400E3
:10017E0000F80888880808000019212020110E00B8
:10018E0000E0108888180000000F112020110E00CA
:10019E0000380808C83808000000003F00000000C2
:1001AE000070880808887000001C222121221C0083
:1001BE0000E010080810E0000000312222110F00AC
:1001CE00000000C0C0000000000000303000000041
:1001DE0000000080000000000000806000000000B1
:1001EE0000008040201008000001020408102000CA
:1001FE004040404040404000040404040404040015
:10020E0000081020408000000020100804020100A9
:10021E00007048080808F0000000003036010000A9
:10022E00C030C828E810E0000718272423140B005C
:10023E000000C038E0000000203C230202273820D6
:10024E0008F8888888700000203F202020110E00BA
:10025E00C0300808080838000718202020100800B1
:10026E0008F808080810E000203F202020100F009A
:10027E0008F88888E8081000203F20202320180066
:10028E0008F88888E8081000203F200003000000CE
:10029E00C03008080838000007182020221E02006F
:1002AE0008F808000008F808203F210101213F202E
:1002BE00000808F8080800000020203F2020000059
:1002CE0000000808F8080800C08080807F00000049
:1002DE0008F888C028180800203F20012638200082
:1002EE0008F8080000000000203F202020203000E9
:1002FE0008F8F800F8F80800203F003F003F200003
:10030E0008F830C00008F808203F200007183F000A
:10031E00E01008080810E0000F10202020100F0039
:10032E0008F808080808F000203F2101010100002C
:10033E00E01008080810E0000F18242438504F0071
:10034E0008F8888888887000203F2000030C302031
:10035E0000708808080838000038202121221C006F
:10036E00180808F8080818000000203F20000000B8
:10037E0008F808000008F808001F202020201F00A1
:10038E000878880000C83808000007380E01000001
:10039E00F80800F80008F800033C0700073C0300CB
:1003AE00081868808068180820302C03032C302031
:1003BE000838C800C83808000000203F20000000A0
:1003CE0010080808C83808002038262120201800F8
:1003DE00000000FE020202000000007F40404000CC
:1003EE00000C30C000000000000000010638C00004
:1003FE0000020202FE000000004040407F000000AC
:10040E0000000402020204000000000000000000D0
:10041E0000000000000000008080808080808080CE
:10042E0000020204000000000000000000000000B6
:10043E0000008080808000000019242222223F20AC
:10044E0008F8008080000000003F112020110E00EF
:10045E000000008080800000000E1120202011007E
:10046E00000000808088F800000E112020103F2030
:10047E000000808080800000001F222222221300B4
:10048E00008080F0888888180020203F20200000FF
:10049E000000808080808000006B949494936000B4
:1004AE0008F8008080800000203F210000203F20BF
:1004BE0000809898000000000020203F20200000BF
:1004CE00000000809898000000C08080807F0000AF
:1004DE0008F8000080808000203F24022D3020008C
:1004EE00000808F8000000000020203F2020000037
:1004FE008080808080808000203F20003F20003F51
:10050E008080008080800000203F210000203F205E
:10051E000000808080800000001F202020201F000F
:10052E00808000808000000080FFA12020110E003E
:10053E000000008080808000000E112020A0FF802F
:10054E00808080008080800020203F2120000100DC
:10055E000000808080808000003324242424190031
:10056E00008080E0808000000000001F202000003E
:10057E008080000000808000001F202020103F207F
:10058E00808080000080808000010E30080601000F
:10059E0080800080008080800F300C030C300F00B4
:1005AE0000808000808080000020312E0E312000DF
:1005BE00808080000080808080818E70180601000F
:1005CE0000808080808080000021302C222130002D
:1005DE0000000000807C020200000000003F40404E
:1005EE0000000000FF00000000000000FF000000FF
:1005FE000002027C800000000040403F000000002E
:10060E0000060101020204040000000000000000C8
:09102400D281D280C281C2802277
:07000300C281D280D28122EC
:070F4100AD071210247F78B8
:100F4800E4FEEF30E703D38001C39281D280C280F0
:0C0F5800EF25E0FF0EBE08EAD280C28048
:010F6400226A
:10101400120F41E4FF120F48AF05120F48020003FC
:100FA900F583E58229F582E43583F583E493F4FF3B
:100FB900120F417F40120F48AF05120F480200037C
:060F8700E51304FFAD02BA
:100F8D00AC05EF44B0FF121014EC54F0C4540F44F0
:0C0F9D0010FF121014EC540FFF0210148F
:100FE200E4FBAF03E4FD120F8DE4FCE4FF120FB942
:080FF2000CBC80F70BBB08EA00
:010FFA0022D4
:100FFB00E4FBAF03E4FD120F8DE4FC7FFF120FB98E
:08100B000CBC80F70BBB08EAE6
:0110130022BA
:100C3900D281D2807FAE1210147FD51210147F801A
:100C49001210147FA81210147F3F1210147FD312B0
:100C59001014E4FF1210147F401210147FA1121017
:100C6900147FC81210147FDA1210147F1212101494
:100C79007F811210147FCF1210147FD91210147FA4
:100C8900F11210147FDB1210147F301210147FA49C
:100C99001210147FA61210147F8D1210147F1412D3
:070CA90010147FAF021014CC
:040B1F008F13AA0581
:100B2300E4F9EB24E0FB120F8DE516604DE475F05C
:100B330010EBA4242EF582E5F03400F583E5822939
:100B4300F582E43583F583E493FF120FB909B908FD
:100B5300DD120F87E4F975F010EBA42436F582E576
:100B6300F03400F583E58229F582E43583F583E4E7
:100B730093FF120FB909B908DD22E4F975F010EB00
:100B8300A4242EF582E5F03400120FA909B908EC6C
:100B9300120F87E4F975F010EBA42436F582E5F023
:090BA3003400120FA909B908EC95
:010BAC002226
:0A0EAE008F098D0A8B0B8A0C890D49
:100EB800E4F50FC2AFF50FAB0BAA0CA90D850F8295
:100EC80075830012061EFB6015E50F75F008A42552
:100ED8000AFD850E16AF09120B1F050F80D9D2AF78
:010EE80022E7
:080E26008E138F148D828C8362
:100E2E00E4751801F517F516F515E5821582AE83F2
:100E3E00700215834E601CAB18AA17A916A815AE22
:100E4E0013AF14E4FCFD1206A08F188E178D168CAE
:0B0E5E001580D7AF18AE17AD16AC150D
:010E69002266
:040D22008F098D0A9E
:100D2600E4F511C2AFF511E511C3950F5051E50F6A
:100D360024FFFFE434FFFEC3EF9511FDEE9400FCA3
:100D46007F0A7E00120E26A804A905AA06AB07AFE5
:100D56000EAE0DAD0CAC0B12072BE47B0AFAF9F8BC
:100D660012072BEB2430F512E51175F008A4250ABD
:100D7600FD851016AB12AF09120B1F051180A8D204
:010D8600AFBD
:010D87002249
:100EE9005389F0438901E4F58A758CB8C28DD28C97
:100EF900D2A9F5C9F5C875CC8F75CDFE75CA8F75A0
:100F0900CBFEC2CAD2ADD28AD2AAD2BDC2B9D2BA96
:030F1900D2AF2232
:100E6A00667265313A2020202020485A2020202509
:100E7A0000667265323A2020202020485A2020201D
:100E8A002500667265333A2020202020485A202007
:100E9A00202500667265343A2020202020485A20F6
:040EAA0020202500DF
:100D8800E4F55F755201F55BF55CF55DF55EF553CD
:100D980075540AF555755614F55775581EF5597555
:100DA8005A28754E0A754F1475501E75512875428C
:100DB800FF75430E75446A7545FF75460E75477B8A
:100DC8007548FF75490E754A8C754BFF754C0E7545
:030DD8004D9D220C
:10095A00E4F508E508655F7063E50875F003A4240B
:10096A0042F8860308E6FA08E6F9E50825E0FFE416
:10097A00F50EFD120EAEE50825E0FFC007E50825D5
:10098A00E02453F8E6FE08E6FFE48F0E8E0DF50C20
:10099A00F50B750F03F510D0077D30120D22E5080F
:1009AA0025E0FFC007744E2508F8E6FFE48F0EF530
:1009BA000DF50CF50B750F02F5108064E50875F05E
:1009CA0003A42442F8860308E6FA08E6F9E50825AE
:1009DA00E0FF750E01E4FD120EAEE50825E0FFC04A
:1009EA0007E50825E02453F8E6FE08E6FFE48F0E43
:1009FA008E0DF50CF50B750F03751001D0077D30C0
:100A0A00120D22E50825E0FFC007744E2508F8E616
:100A1A00FFE48F0EF50DF50CF50B750F027510013D
:100A2A00D0077D68120D220508E508C39404500317
:030A3A0002095D51
:010A3D002296
:100DDB00E55F25E0FFC007E55F25E02453F8E6FE5D
:100DEB0008E6FFE48F0E8E0DF50CF50B750F03F572
:100DFB0010D0077D30120D22E55F25E0FFC0077490
:100E0B004E255FF8E6FFE48F0EF50DF50CF50B752F
:0B0E1B000F02F510D0077D68020D22C9
:100BB900020F1CE493A3F8E493A34003F68001F227
:100BC90008DFF48029E493A3F85407240CC8C3333D
:100BD900C4540F4420C8834004F456800146F6DF0C
:100BE900E4800B0102040810204080900FC9E47EC4
:100BF900019360BCA3FF543F30E509541FFEE49301
:100C0900A360010ECF54C025E060A840B8E493A3C7
:100C1900FAE493A3F8E493A3C8C582C8CAC583CAF2
:100C2900F0A3C8C582C8CAC583CADFE9DEE780BEAA
:010FE100000F
:10061E00BB010CE58229F582E5833AF583E0225091
:10062E0006E92582F8E622BBFE06E92582F8E222DB
:0D063E00E58229F582E5833AF583E49322F5
:10064B00BC000BBE0029EF8DF084FFADF022E4CC93
:10065B00F875F008EF2FFFEE33FEEC33FCEE9DEC5C
:10066B00984005FCEE9DFE0FD5F0E9E4CEFD22EDA2
:10067B00F8F5F0EE8420D21CFEADF075F008EF2FEC
:10068B00FFED33FD4007985006D5F0F222C398FDDD
:05069B000FD5F0EA227A
:1006A000E88FF0A4CC8BF0A42CFCE98EF0A42CFCF9
:1006B0008AF0EDA42CFCEA8EF0A4CDA8F08BF0A477
:1006C0002DCC3825F0FDE98FF0A42CCD35F0FCEBD6
:1006D0008EF0A4FEA9F0EB8FF0A4CFC5F02ECD399B
:0F06E000FEE43CFCEAA42DCE35F0FDE43CFC2208
:1006EF0075F008758200EF2FFFEE33FECD33CDCCC2
:1006FF0033CCC58233C5829BED9AEC99E582984045
:10070F000CF582EE9BFEED9AFDEC99FC0FD5F0D621
:10071F00E4CEFBE4CDFAE4CCF9A88222B800C1B94B
:10072F000059BA002DEC8BF084CFCECDFCE5F0CB89
:10073F00F97818EF2FFFEE33FEED33FDEC33FCEBC2
:10074F0033FB10D703994004EB99FB0FD8E5E4F97D
:10075F00FA227818EF2FFFEE33FEED33FDEC33FC6A
:10076F00C933C910D7059BE99A4007EC9BFCE99A5E
:10077F00F90FD8E0E4C9FAE4CCFB2275F010EF2FA3
:10078F00FFEE33FEED33FDCC33CCC833C810D707A3
:10079F009BEC9AE899400AED9BFDEC9AFCE899F8DE
:0E07AF000FD5F0DAE4CDFBE4CCFAE4C8F92271
:00000001FF
